:100000002EC448C447C446C445C444C443C40AC7F4
:1000100041C440C43FC43EC43DC47FC6A4C63AC424
:1000200039C438C437C436C4F3C627C72AC730C753
:100030003FC743C74DC778C786C700000080805FB1
:10004000808080800300038080147F147F14242A22
:100050007F2A122313086462364956205005038014
:1000600080801C2241808041221C808022146B14DD
:100070002208083E08085030808080080808088060
:10008000606080808060100804033E41413E8042F1
:100090007F40808062514946802241493680181451
:1000A000127F8027454539803C4A49318001710DD6
:1000B000038036494936800649291E8036368080BD
:1000C00080563680808008142241801414141480D5
:1000D00041221408800251090680324979413E7E4E
:1000E00009097E807F494936803E414122807F4117
:1000F000413E807F494941807F090901803E49494D
:100100003A807F08087F80417F4180802040403FC7
:10011000807F081463807F404040807F020C027F14
:100120007F06187F803E41413E807F090906803E60
:1001300041215E807F09196680264949328001018C
:100140007F01013F40403F8007186018073F40385B
:10015000403F631408146303047804036159454362
:10016000807F41418080030408106041417F80808E
:100170000201028080404040408003048080802053
:10018000545478807F48483080384444288038442C
:10019000447F803854544880047E0501804854547C
:1001A00038807F080870807A8080808020403A8084
:1001B000807F08146280417F4080807C04780478CE
:1001C0007C0404788038444438807C2424188018C7
:1001D00024247C8078040480804854542480043F84
:1001E0004444803C40407C800C3040308C3C40306B
:1001F000403C44281028444C50503C8064544C44AB
:100200008008364180807F808080804136088080F1
:10021000080408100880808080801C2A4949221F19
:10022000047F40402012101220102220221021545E
:10023000547980791414798039444439803944449C
:1002400039803D40407D803D40403D807E25251ADF
:10025000806C1A6F1A6C7D5A1E5A7D4E7B0F7B4E36
:100260007C3A7E3A7C1C762E761C1E347C341E0C26
:100270001224120C081C3E7F807F3E1C0880303FF9
:1002800001627E303F0280801E3D777331607E7B4D
:100290007E60205F2380807E7A7A7F800345794567
:1002A00003102824281008142A1408000000000055
:1002B00036360836361E143C287844241D24444221
:1002C000241D620108651C224146241D244C08445B
:1002D0003D44084C241D244601621D620142241D38
:1002E00024427C4657467C7F2A2A7F802A7F417F92
:1002F0002A0A0055000A30484D3307062979290695
:10030000081C2A080808082A1C080202010101101A
:10031000040840200101020100000202040810014B
:1003200002020001020305080D15321E120B07051B
:100330000302142A49493E001C2A493E003E493E18
:10034000087F2A1C0808221C0808081C0008080846
:10035000000808080808080808000808080000083D
:10036000080000000800000000000000000C000071
:10037000000C1200000C1224000C1224120C122487
:10038000120CFF785C6878717C38747C7A785062E3
:1003900062787C606170687A6030787470797052CD
:1003A00069607C6870615066707820687160725016
:1003B00074797062687270306174617850707A74A8
:1003C000314068441068703460284A60586060703A
:1003D00038661860707842195864702970703A78DD
:1003E00054707051786A70FF010000000002020131
:1003F000000006090906000030484830002050502F
:1004000020003048483000000609090000000102C1
:10041000FF0844281008040204085030100804049F
:100420000201FF01000000000200010000040002C0
:10043000000008010400011002080002200411005D
:1004400004410822000842104401104520480220BF
:100450004A40500441544060084268416011447071
:100460004260224870446045507048604A50705065
:1004700060546070606068607060607060FF000071
:100480001C0000003E223E007F4141417FFF0026CC
:1004900020260000262026000026202600002620F8
:1004A00024000026202600002620260010262026D4
:1004B00010FF10101010100810100F701010080806
:1004C000101010101010FF552A552A552A552A557C
:1004D0002AFF000007000000000E000000080808C6
:1004E00000101010000020202000004043430000B6
:1004F000404646000040404C0C0040404018184028
:1005000040406060000000202040404060600001EA
:1005100007444000020E48400018084C40301018B4
:100520004040602030404060273440407E303040C2
:10053000407E313340407E323640407E303644404B
:100540007E30304C487E303050587E303060705EA7
:10055000101040507E303060707C202040607C2144
:100560002744607C222E48607C38284C607C3B2BE2
:100570004C607C3E2E4C607C3F2F4D60FF030000A2
:100580000000030000000007000000000602000059
:100590000005060000000C06000000080E00000028
:1005A0000A0C040000080A0C000004180C000008E3
:1005B000101C000000141808000010141800000897
:1005C00030180000102038000000283010000020F3
:1005D000283000000000000000202830FF2050508C
:1005E00020003048483000060909060001020201D7
:1005F000000001010000FF404009010000454100EA
:100600000003014040000501404000094140000056
:100610005041010000604101000040510100000014
:100620004151000000004149000000414108000024
:100630004045010000054140000301404001050024
:10064000404000090140400010014140002041416C
:100650000000404141000040410100FF4040404057
:100660004040605048444464544C44446C546C448E
:10067000446C546C7C446C556E7C446E556E7C7C32
:100680006E556E7CFF403C433C40407C437C404088
:100690003C433C40407C437C40403C433C40407CAD
:1006A000437C40205E215E20106F106F1008770899
:1006B0007708047B047B04027502750201680168F7
:1006C00001205020502040102000402000400040D9
:1006D0004000400000FF3F6764246666246F69693C
:1006E0003F01003C64662767663C0000213F696962
:1006F0002F29292F69693F210000203E62622323B0
:100700002362623E2000003C647C243C243C247C28
:10071000643CFF00027D000000017C020000007AC2
:10072000000000087204000008601000001068005B
:100730000000204010000000200000000000000029
:100740000000000000000000000000003000000079
:100750007C543800793D243D797B3F163F7B7E7C7D
:10076000187C7E7C0810087C7008100870600820D7
:1007700010601040002000FF404041404040404396
:10078000404040404540404040494040404051404A
:100790004040402140404040514040404841484056
:1007A00048404140484040414040FF1C3E773E1C8D
:1007B0003E7763773E7763416377634108416341E6
:1007C000081C0841081C3E1C08FF7F7F7F7F7F1CA0
:1007D0001C1C1C1C08080808080808080808000851
:1007E0000808000000080000FF1C222E2A1C1C2202
:1007F0002A2E1C1C222A2A1C1C222A3A1C1C223AA1
:100800002A1C1C322A2A1C1C2A2A2A1C1C262A2A98
:100810001CFF404058646864687048444C4848482D
:1008200048484442714952646870705840404040A2
:10083000FF32038303E803110423047E048E04B211
:1008400004C704D2047D05DD05F7055C068506D6E0
:100850000613077807AB07CA07E907120800112437
:100860001FBECFE5D1E0DEBFCDBF10E0A0E6B0E017
:10087000E8EDFFE002C005900D92A636B107D9F76A
:1008800011E0A6E6B0E001C01D92A933B107E1F77F
:1008900018D2A0C3B5CBDF93CF9300D00F92CDB7C2
:1008A000DEB719821A821B8220E030E0AE014F5F72
:1008B0005F4F60FF0EC0F901EC5EFC4F9491F901AF
:1008C000E55EFC4FE491DA01A90FB11D9C919E2BCE
:1008D0009C932F5F3F4F2730310511F06695E9CF8C
:1008E00020E030E0AE014F5F5F4F821771F0F901F9
:1008F000E65FFC4F9491F901E15FFC4FE491DA016E
:10090000A90FB11D9C919E2B9C932F5F3F4F2530CB
:10091000310559F78BB38C7F9981892B8BBB88B3B9
:1009200081789A81892B88BB82B3817E9B81892BB8
:1009300082BB0F900F900F90CF91DF91089580911F
:1009400032018F5F80933201853010F010923201B6
:1009500080913201E82FF0E090913101E759FF4F8B
:10096000E90FF11D608197DF0895F09133012F2F7A
:100970002F708F2F90E0AC0140715070F4FF04C0D5
:10098000E0913101E21B03C0E0913101E20FA0913F
:1009900034012E2F30E02C5F3F4F6A2F70E0261776
:1009A0003707F4F020913601222321F021502093C3
:1009B000360114C0209135012093360185FF05C012
:1009C00080E18F278093330109C04115510521F043
:1009D000A550A093310102C01092310181E0089529
:1009E000E093310180E008958F706370613019F0F9
:1009F0004093360102C0109236016295682B6093D5
:100A00003301409335010895109231011092340161
:100A10001092690010926A0010926B0010926C00A4
:100A200010926D000895F0DF10923301109235019D
:100A30000895209134010BC0FC0134913F3F49F0EF
:100A40000196E22FF0E0E759FF4F30832F5F283CFB
:100A500098F320933401089590913401983C40F428
:100A6000E92FF0E0E759FF4F80839F5F90933401B7
:100A700008958F3D49F0843C61F0863D79F08C3DCE
:100A800079F0843E79F002C08AE811C0863F61F0B7
:100A900002C085E80CC08C3F49F009C087E807C058
:100AA00089E805C084E803C086E801C088E8805270
:100AB000813928F5E82FF0E0CF01880F991F880FC2
:100AC000991FE65CFF4FE80FF91F80913401AF01D9
:100AD0004B5F5F4F01C0F9019F012F5F3F4FE491D2
:100AE000E7FD0BC0883C30F4A82FB0E0A759BF4FFA
:100AF000EC938F5F2417350771F7809334010895C5
:100B000083E08ABB8EE787BB8EE181BB8BB38C6FA2
:100B10008BBB88B3816888BB82B3816E82BB10BEF9
:100B200085E083BF84E086BF87E28CBF89B785609C
:100B300089BF82E789B912B880E98AB986E083B9AA
:100B400008951F93182F83FF02C085E001C081E044
:100B5000612F661F6627661F660FE12FE295E7701B
:100B6000F0E0EE5DFC4F44913FDF1770E12FF0E0C5
:100B7000E65DFC4FE491E09360001F910895CF92F1
:100B8000DF92EF92FF920F931F93DF93CF930F9219
:100B9000CDB7DEB78C0108D2D4DF0F5F1F4F34DF33
:100BA00068010894C11CD11CC801FED1982F46C011
:100BB0009E37A9F486010F5F1F4FC601F5D18E370E
:100BC00081F1E82FE154E63160F5F0E0EE0FFF1F10
:100BD000EF5CF74F25913491C9012BDF22C09F3F75
:100BE00089F486010F5F1F4FC601DED108C034DFD4
:100BF00068010894C11CD11CC801D6D186018F3F61
:100C0000B1F70FC09E3551F486010F5F1F4FC6012B
:100C1000CBD1982F8E3519F0915C01C08601892FB8
:100C200028DF68010894C11CD11CC801BDD1982FD0
:100C3000882321F080E099830FDF9981992309F0BF
:100C4000B7CFC601B1D1882321F480E0C82E80E05F
:100C5000D82EC6010F90CF91DF911F910F91FF9079
:100C6000EF90DF90CF900895CFDE8FEF94E3ACE06C
:100C700081509040A040E1F700C0000080E18ABFB1
:100C800090E495B98BBF85B7806585BF85B78062D5
:100C900085BF889585B78F7D85BF1BBE83E8E9DE5C
:100CA0008FE79AE1A6E081509040A040E1F700C0B4
:100CB000000080E090E063DF90933801809337017B
:100CC00008951EDFB0DE7894CFDF809161008068E8
:100CD0008093610080916100882371F480913701D5
:100CE000909138014CDF90933801809337018091C7
:100CF000610080688093610080916100833051F7CA
:100D000083DE82E8B6DE8FE79AE1A6E0815090406C
:100D1000A040E1F700C00000D7CF1F920F920FB69E
:100D20000F9211242F933F934F935F936F937F9371
:100D30008F939F93AF93BF93EF93FF9386B78C5F8F
:100D400086BFFDDDFF91EF91BF91AF919F918F9194
:100D50007F916F915F914F913F912F910F900FBEB7
:100D60000F901F9018951F920F920FB60F9211249B
:100D70002F933F934F935F936F937F938F939F93A3
:100D8000AF93BF93EF93FF938CB7895D8CBF809136
:100D90006400882321F081508093640005C0809115
:100DA000600080936400E1DD80B386FF08C080911D
:100DB000610080FF1CC0809161008E7712C080911D
:100DC000610080FD05C081E08093610084E60DC074
:100DD00080916100813059F480916800882321F46A
:100DE00083E08093610003C0815080936800FF918D
:100DF000EF91BF91AF919F918F917F916F915F9193
:100E00004F913F912F910F900FBE0F901F9018950B
:100E10001F920F920FB60F9211240F900FBE0F90DA
:100E20001F9018951F920F920FB60F9211241F93C7
:100E30002F933F934F935F936F937F938F939F93E2
:100E4000AF93BF93EF93FF935C999CC01CB11B3190
:100E500019F482E08093670080916700853018F074
:100E6000D3DD812F06DEE0916700F0E0E830F10588
:100E700008F088C0EB5EFF4F09941834B1F481E0AC
:100E800077C01C3409F473C0143479F483E070C063
:100E900080E090E090933801809337019093630055
:100EA00080936200B1DD81E8E4DD109267006AC0E2
:100EB000ABDD812F46DE84E05BC01D3011F01A30BF
:100EC00011F4A2DD5FC0812FD4DD80E0C5DD5AC002
:100ED0001E3511F486E04CC0143221F410926600E5
:100EE00087E046C01D3011F01A3069F4809162002D
:100EF000909163009C012F5F3F4F309363002093DC
:100F0000620060E00FC01032E8F120916200309181
:100F10006300A9014F5F5F4F5093630040936200ED
:100F2000C901612F49D02EC0209162003091630029
:100F3000A9014F5F5F4F5093630040936200612FA0
:100F4000615CC90113C0113408F0175010531031FF
:100F500090F080916200909163009C012F5F3F4F61
:100F600030936300209362006091660025D085E095
:100F70008093670007C0809166008295807F810F13
:100F800080936600FF91EF91BF91AF919F918F91F8
:100F90007F916F915F914F913F912F911F910F9092
:100FA0000FBE0F901F901895E199FECF1FBA8EBB10
:100FB000E09A99278DB30895262FE199FECF1CBAA8
:100FC0001FBA8EBB2DBB0FB6F894E29AE19A0FBE02
:080FD00001960895F894FFCF8B
:060FD8000880000001008A
:00000001FF
